:020000040800F2
:100000006807002049010008510100085301000859
:1000100000000000000000000000000000000000E0
:100020000000000000000000000000005501000872
:1000300000000000000000005701000859010008FE
:100040005B0100085B0100085B0100085B01000820
:100050005B0100085B0100085B0100085B01000810
:100060005B0100085B0100085B0100085B01000800
:100070005B0100085B0100085B0100085B010008F0
:100080005B0100085B0100085B0100085B010008E0
:100090005B0100085B0100085B0100085B010008D0
:1000A0005B0100085B0100085B0100087D0200089D
:1000B0005B0100085B0100085B0100085B010008B0
:1000C00000F002F800F030F80CA030C8083824180E
:1000D0002D18671EA246AB4654465D46AC4201D180
:1000E00000F022F87E460F3EB6460FCC0126334282
:1000F00000D0FB1A3343A246AB461847B8040000B1
:10010000C80400000023002400250026103A01D373
:1001100078C1FBD8520700D330C100D50B607047BF
:100120001FB51FBD10B510BD00F02DF81146FFF72B
:10013000F7FF00F005F900F045F803B4FFF7F2FF10
:1001400003BC00F04BF80000074880470748004711
:10015000FEE7FEE7FEE7FEE7FEE7FEE704480549A7
:10016000054A064B7047000079020008C1000008EC
:100170006801002068070020680300206803002051
:10018000704770477047754600F024F8AE4605008A
:1001900069465346C008C000854618B020B5FFF731
:1001A000DDFF60BCB64600260027C0C5C0C5C0C57F
:1001B000C0C5C0C5C0C5C0C5C0C5403D490849008F
:1001C0008D46704710B50446C046C0462046FFF72E
:1001D000B4FF10BD004870470000002001491820FE
:1001E000ABBEFEE72600020070470000B0B501205C
:1001F00081036C4A53680B435360410413680B43FB
:1002000013600521CA041A490B460C3B1C681443B1
:100210001C60112212018B6913438B6142020B4651
:10022000083B1C6894431C60032293040C689C43A5
:100230000C600C1F25681D43256012050B68934355
:100240000B6002050B6813430B600A490A6882437E
:100250000A604522CA600C220A600A6860231343C0
:100260000B6000224A608A600A6802430A60B0BDDF
:100270000C0000480038014070470000F0B581B024
:10028000264D2868800635D52C89FC202040642125
:1002900000F094F83022009201461143444A176856
:1002A000FAB21F4B99546321C94341430819C6B29E
:1002B000B0B20A24214600F081F8194B4443303093
:1002C000791CC9B25854301B00990843B91CC9B2F3
:1002D0005854F81CC0B220211954381D3449086004
:1002E00028680006FCD5314801684A1C0260C8B283
:1002F000185CA881286840060DD5402068602B490D
:1003000008682B4A1268904205D2421C0A60C0B2AB
:100310000349085CA88101B0F0BDC0461C3801400B
:100320006000002081B0002100910099814205D237
:100330000099491C009100998142F9D301B070479E
:1003400072B60125A80417490A6802430A602E0400
:10035000154F38683043284338600F20000639684D
:100360008143396028027969014379610F4800218E
:1003700001600F480160FFF739FFE8060D490A6880
:1003800002430A6062B63869BD618004800F0A4C7E
:1003900084402046FFF7C6FFBE612046FFF7C2FF3C
:1003A000F1E7C0461410024000040048600100203C
:1003B0006401002000E100E050C3000043088B42CC
:1003C0001AD3002203098B4279D3030A8B425ED3EE
:1003D000030B8B4242D3030C8B4227D30902FF222B
:1003E00012BA030C8B4202D31212090203D0030B80
:1003F0008B4233D31AE0D3E0411A8041401C70474E
:1004000003460B4371D443088B42F5D30022030902
:100410008B4254D3030A8B4239D3030B8B421DD337
:10042000030C8B4202D394466EE0090AC30B8B4245
:1004300001D3CB03C01A5241830B8B4201D38B03F0
:10044000C01A5241430B8B4201D34B03C01A524195
:10045000030B8B4201D30B03C01A5241C30A8B42D8
:1004600001D3CB02C01A5241830A8B4201D38B02C3
:10047000C01A5241430A8B4201D34B02C01A524167
:10048000030A8B4201D30B02C01A5241CDD2C309D9
:100490008B4201D3CB01C01A524183098B4201D355
:1004A0008B01C01A524143098B4201D34B01C01A40
:1004B000524103098B4201D30B01C01A5241C308B8
:1004C0008B4201D3CB00C01A524183088B4201D327
:1004D0008B00C01A524143088B4201D34B00C01A13
:1004E0005241411A524110007047CA0F00D0494290
:1004F000031000D34042534000229C4603098B4224
:100500002DD3030A8B4212D38901FC2212BA030AAB
:100510008B420CD3890192118B4208D3890192112D
:100520008B4204D3890137D0921100E08909C309B5
:100530008B4201D3CB01C01A524183098B4201D3B4
:100540008B01C01A524143098B4201D34B01C01A9F
:10055000524103098B4201D30B01C01A5241C30817
:100560008B4201D3CB00C01A524183088B4201D386
:100570008B00C01A5241D9D243088B4201D34B00A1
:10058000C01A5241411A00D20146524110466346F8
:100590005B1000D34042704763465B1000D340427B
:1005A00001B50021004201D0C9430846C046C046FB
:1005B00002BD0000C405000800000020680700001C
:0405C000040100082A
:0400000508000149A5
:00000001FF
