:020000040800F2
:10000000780A0020650100086D0100086F010008F2
:1000100000000000000000000000000000000000E0
:100020000000000000000000000000007101000856
:1000300000000000000000007301000875010008C6
:1000400077010008770100087701000877010008B0
:1000500077010008770100087701000877010008A0
:100060007701000877010008770100087701000890
:100070007701000877010008770100087701000880
:100080007701000877010008770100087701000870
:100090007701000877010008770100087701000860
:1000A000770100087701000877010008950400082F
:1000B0007701000877010008770100087701000840
:1000C00000F002F800F03EF80CA030C80838241800
:1000D0002D18671EA246AB4654465D46AC4201D180
:1000E00000F030F87E460F3EB6460FCC0126334274
:1000F00000D0FB1A3343A246AB4618473C08000029
:100100005C080000103A02D378C878C1FAD85207C8
:1001100001D330C830C101D504680C6070470000BD
:100120000023002400250026103A01D378C1FBD813
:10013000520700D330C100D50B6070471FB51FBDFB
:1001400010B510BD00F029F91146FFF7F7FF00F0D8
:100150008FFA00F041F903B4FFF7F2FF03BC00F09F
:1001600047F900000748804707480047FEE7FEE7D9
:10017000FEE7FEE7FEE7FEE704480549054A064BB1
:100180007047000091040008C100000878040020B6
:10019000780A002078060020780600200022030953
:1001A0008B4273D3030A8B4258D3030B8B423CD34D
:1001B000030C8B4221D312E003460B437FD4002271
:1001C00043088B4274D303098B425FD3030A8B42EB
:1001D00044D3030B8B4228D3030C8B420DD309026B
:1001E000FF2212BA030C8B4202D31212090265D00D
:1001F000030B8B4219D300E0090AC30B8B4201D3D6
:10020000CB03C01A5241830B8B4201D38B03C01A1C
:100210005241430B8B4201D34B03C01A5241030B93
:100220008B4201D30B03C01A5241C30A8B4201D344
:10023000CB02C01A5241830A8B4201D38B02C01AEF
:100240005241430A8B4201D34B02C01A5241030A66
:100250008B4201D30B02C01A5241CDD2C3098B424B
:1002600001D3CB01C01A524183098B4201D38B01C8
:10027000C01A524143098B4201D34B01C01A52416B
:1002800003098B4201D30B01C01A5241C3088B42B0
:1002900001D3CB00C01A524183088B4201D38B009B
:1002A000C01A524143088B4201D34B00C01A52413D
:1002B000411A00D201465241104670475DE0CA0F14
:1002C00000D04942031000D3404253409C460022D4
:1002D00003098B422DD3030A8B4212D38901FC22DE
:1002E00012BA030A8B420CD3890192118B4208D3B4
:1002F000890192118B4204D389013AD0921100E016
:100300008909C3098B4201D3CB01C01A5241830929
:100310008B4201D38B01C01A524143098B4201D356
:100320004B01C01A524103098B4201D30B01C01A81
:100330005241C3088B4201D3CB00C01A52418308FB
:100340008B4201D38B00C01A5241D9D243088B4251
:1003500001D34B00C01A5241411A00D2014652410A
:10036000104663465B1001D34042002B00D5494242
:10037000704763465B1000D3404201B50449002832
:1003800002DC491C084000E00846C046C04602BDE9
:10039000FFFFFF7F704770477047754600F024F8F5
:1003A000AE46050069465346C008C000854618B0F1
:1003B00020B5FFF7E1FE60BCB64600260027C0C5A9
:1003C000C0C5C0C5C0C5C0C5C0C5C0C5C0C5403D0D
:1003D000490849008D46704710B50446C046C046DE
:1003E0002046FFF7B8FE10BD0048704710000020FF
:1003F00001491820ABBEFEE726000200704700004E
:10040000B0B5012081031F4A53680B435360410478
:1004100013680B4313600521CA041B490B460C3BB0
:100420001C6814431C60112212018B6913438B61F9
:1004300042020B46083B1C6894431C600322930451
:100440000C689C430C600C1F25681D432560120539
:100450000B6893430B6002050B6813430B600B4959
:100460000A6882430A604522CA600C220A600A6850
:10047000602313430B6000224A608A600A680243CB
:100480000A60B0BD141002400C0000480038014062
:1004900070470000A9480168890644D50189C9B29E
:1004A0005A291DDD5B3923293DD8C0467944097995
:1004B00049008F44113838383838383838381F38C0
:1004C00038382338383838383838383827383838D2
:1004D000383838383838382B5C490A78102320E00F
:1004E0001B2917D0312919D035291CD157490A7831
:1004F000402316E055490A78022312E053490A784E
:1005000004230EE051490A7801230AE04F490A7892
:10051000802306E04D490A78082302E04B490A7817
:10052000202313430B700168490601D54021416027
:100530007047C046F0B585B044490C78F822204693
:1005400004921040F82803D10020087005B0F0BDD7
:100550003F48006803903F48006802903E480068AA
:1005600001903E4D41A340A73DA605E00C782046F2
:10057000049A1040F828E7D060071AD500202968AF
:100580000906FCD5315CA981401C0228F7D10198ED
:1005900000F098F828680006FCD50D20A8812B49AA
:1005A00032A328680006FCD50A20A881FB2004405D
:1005B0000C700C78A00729D500202AA2296809060A
:1005C000FCD5115CA981401C0328F7D128680006DE
:1005D000FCD53D20A881029800F074F8002029681D
:1005E0000906FCD5395CA981401C0328F7D11FA35B
:1005F00028680006FCD50D20A8811449286800064B
:10060000FCD50A20A881FD2004400C700C78E0077E
:10061000ACD0002029680906FCD5195CA981401CD2
:100620000228F7D1039800F04DF828680006FCD5A1
:100630000D20A881054928680006FCD50A20A8815C
:10064000FE2004400C7009A390E7C0467000002013
:100650000800002000000020040000201C38014099
:100660006E3D0000613D00002D310000733D000033
:10067000F0B581B072B6FFF7C3FE0120C0060D4988
:100680000A6802430A6062B60B4C206811280EDC2F
:10069000451C0A4E0A4FFFF74DFF25603068401E8B
:1006A00030603968081838606D1C132DF3D10020B4
:1006B00001B0F0BD00E100E00400002000000020D7
:1006C00008000020F0B581B004461A480178002CDB
:1006D00018D000910778184E0A2520462946FFF7C2
:1006E0005DFD30200843F9B289007050204629464C
:1006F00000F048F87F1C0934132C0446ECD20D4856
:100700000770009902788A4211D30078411A0025B7
:100710000A4B094C2E461F683F06FCD5521B92001F
:10072000A25C9A81761CF5B2A9420246F3DA01B0C6
:10073000F0BDC04671000020740000201C3801404C
:1007400043088B421AD3002203098B4279D3030A50
:100750008B425ED3030B8B4242D3030C8B4227D3D5
:100760000902FF2212BA030C8B4202D312120902B1
:1007700003D0030B8B4233D31AE0D3E0411A8041FC
:10078000401C704703460B4371D443088B42F5D39A
:10079000002203098B4254D3030A8B4239D3030B43
:1007A0008B421DD3030C8B4202D394466EE0090AA0
:1007B000C30B8B4201D3CB03C01A5241830B8B4234
:1007C00001D38B03C01A5241430B8B4201D34B031D
:1007D000C01A5241030B8B4201D30B03C01A524182
:1007E000C30A8B4201D3CB02C01A5241830A8B4207
:1007F00001D38B02C01A5241430A8B4201D34B02F0
:10080000C01A5241030A8B4201D30B02C01A524153
:10081000CDD2C3098B4201D3CB01C01A5241830907
:100820008B4201D38B01C01A524143098B4201D341
:100830004B01C01A524103098B4201D30B01C01A6C
:100840005241C3088B4201D3CB00C01A52418308E6
:100850008B4201D38B00C01A524143088B4201D313
:100860004B00C01A5241411A524110007047CA0F42
:1008700000D04942031000D34042534000229C461E
:1008800003098B422DD3030A8B4212D38901FC2228
:1008900012BA030A8B420CD3890192118B4208D3FE
:1008A000890192118B4204D3890137D0921100E063
:1008B0008909C3098B4201D3CB01C01A5241830974
:1008C0008B4201D38B01C01A524143098B4201D3A1
:1008D0004B01C01A524103098B4201D30B01C01ACC
:1008E0005241C3088B4201D3CB00C01A5241830846
:1008F0008B4201D38B00C01A5241D9D243088B429C
:1009000001D34B00C01A5241411A00D20146524154
:10091000104663465B1000D34042704763465B104D
:1009200000D3404201B50021004201D0C94308462E
:10093000C046C04602BD0000580900080000002063
:100940000C000000040100086409000810000020E9
:10095000680A0000200100081A00000001000000E1
:040960001A00000079
:040000050800016589
:00000001FF
