:020000040800F2
:100000006006002049010008510100085301000862
:1000100000000000000000000000000000000000E0
:100020000000000000000000000000005501000872
:1000300000000000000000005701000859010008FE
:100040005B0100085B0100085B0100085B01000820
:100050005B0100085B0100085B0100085B01000810
:100060005B0100085B0100085B0100085B01000800
:100070005B0100085B0100085B0100085B010008F0
:100080005B0100085B0100085B0100085B010008E0
:100090005B0100085B0100085B0100085B010008D0
:1000A0005B0100085B0100085B0100085B010008C0
:1000B0005B0100085B0100085B0100085B010008B0
:1000C00000F002F800F030F80CA030C8083824180E
:1000D0002D18671EA246AB4654465D46AC4201D180
:1000E00000F022F87E460F3EB6460FCC0126334282
:1000F00000D0FB1A3343A246AB4618478C020000DF
:100100009C0200000023002400250026103A01D3A1
:1001100078C1FBD8520700D330C100D50B607047BF
:100120001FB51FBD10B510BD00F02DF81146FFF72B
:10013000F7FF00F069F800F045F803B4FFF7F2FFAD
:1001400003BC00F04BF80000074880470748004711
:10015000FEE7FEE7FEE7FEE7FEE7FEE704480549A7
:10016000054A064B70470000EB010008C10000087B
:100170006000002060060020600200206002002075
:10018000704770477047754600F024F8AE4605008A
:1001900069465346C008C000854618B020B5FFF731
:1001A000DDFF60BCB64600260027C0C5C0C5C0C57F
:1001B000C0C5C0C5C0C5C0C5C0C5403D490849008F
:1001C0008D46704710B50446C046C0462046FFF72E
:1001D000B4FF10BD004870470000002001491820FE
:1001E000ABBEFEE7260002007047704781B00021D9
:1001F00000910099814205D20099491C0091009913
:100200008142F9D301B0704788B0012080043F4992
:100210000A6802430A603E4C2046103801683D4A95
:100220000A4302602046183801683B4A0A430260CC
:10023000FF21090602688A43026038480EC8006838
:10024000079004A80EC002A80021818001910291AC
:10025000001D00900AE00520C001216801432160D3
:100260003A48FFF7C3FF20683843206002A8019E88
:10027000868020460838016889B2C90B04AD298000
:1002800001684904C90FE98001688904C90F6981BF
:100290000068C004C00FE881029608272C887F1EE2
:1002A0000220394600F054F860438619AD1C002F37
:1002B000F4D100201A4FB1B2072908D907221640FD
:1002C00002AA1652801CCE080628F4D101E002A929
:1002D0000E520326009D0E4C12E0800011A108581A
:1002E0002168014321601748FFF780FF20683843E9
:1002F00020601548FFF77AFFAD1E761E002EAADD9E
:100300002888032EE9D10028F6D0E6E71410024031
:10031000180400485555000055550400780300089E
:100320000000FFFF3F020000060200005B02000029
:100330004F020000660200006D0200007D02000016
:1003400007020000400D030050C3000020A1070079
:1003500010B5002902D0012902D110BD012010BD25
:10036000CA0701D0044600E0012440434908FFF7D2
:10037000EFFF604310BD000000000000000000001F
:1003800001000000000000009803000800000020A9
:080390006006000004010008F2
:0400000508000149A5
:00000001FF
