:020000040800F2
:10000000680600204901000851010008530100085A
:1000100000000000000000000000000000000000E0
:100020000000000000000000000000005501000872
:1000300000000000000000005701000859010008FE
:100040005B0100085B0100085B0100085B01000820
:100050005B0100085B0100085B0100085B01000810
:100060005B0100085B0100085B0100085B01000800
:100070005B0100085B0100085B0100085B010008F0
:100080005B010008490200085B0100085B010008F1
:100090005B0100085B0100085B0100085B010008D0
:1000A0005B0100085B0100085B0100085B010008C0
:1000B0005B0100085B0100085B0100085B010008B0
:1000C00000F002F800F030F80CA030C8083824180E
:1000D0002D18671EA246AB4654465D46AC4201D180
:1000E00000F022F87E460F3EB6460FCC0126334282
:1000F00000D0FB1A3343A246AB4618470802000063
:10010000180200000023002400250026103A01D325
:1001100078C1FBD8520700D330C100D50B607047BF
:100120001FB51FBD10B510BD00F02DF81146FFF72B
:10013000F7FF00F0D1F800F045F803B4FFF7F2FF45
:1001400003BC00F04BF80000074880470748004711
:10015000FEE7FEE7FEE7FEE7FEE7FEE704480549A7
:10016000054A064B7047000045020008C100000820
:100170006800002068060020680200206802002055
:10018000704770477047754600F024F8AE4605008A
:1001900069465346C008C000854618B020B5FFF731
:1001A000DDFF60BCB64600260027C0C5C0C5C0C57F
:1001B000C0C5C0C5C0C5C0C5C0C5403D490849008F
:1001C0008D46704710B50446C046C0462046FFF72E
:1001D000B4FF10BD004870470000002001491820FE
:1001E000ABBEFEE72600020070470000012081043C
:1001F000084A13680B43136007490A68074B134307
:100200000B603F2212060B6893430B60000288616B
:100210007047C0461410024000040048010001006D
:1002200006481021016006484F21C1610A21016280
:10023000016801220A4302607047C0461C10024058
:100240000C10004070470000B0B50F4801780F4A0D
:10025000002903D00E4B1B78012405E013685B04D2
:100260005B0F0B4C23700024DB000AA5EB18A400E5
:100270001B59184CE361012393615940916001704F
:1002800000202060B0BDC04661000020100400487E
:1002900060000020CC00000001000000AF00000062
:1002A0001E000000920000003B00000075000000EE
:1002B0005800000058000000750000003B000000DE
:1002C000920000001E000000AF00000001000000CE
:1002D000CC0000001010004072B6FFF787FFFFF758
:1002E0009FFF01204104054A13680B43136062B667
:1002F00003490A6802430A60FEE7C04600E100E0E5
:1003000000100040140300080000002068060000F0
:0403100004010008DC
:0400000508000149A5
:00000001FF
