:020000040800F2
:10000000A8070020650100086D0100086F010008C5
:1000100000000000000000000000000000000000E0
:100020000000000000000000000000007101000856
:1000300000000000000000007301000875010008C6
:1000400077010008770100087701000877010008B0
:1000500077010008770100087701000877010008A0
:100060007701000877010008770100087701000890
:100070007701000877010008770100087701000880
:100080007701000877010008770100087701000870
:100090007701000877010008770100087701000860
:1000A0007701000877010008770100089D02000829
:1000B0007701000877010008770100087701000840
:1000C00000F002F800F03EF80CA030C80838241800
:1000D0002D18671EA246AB4654465D46AC4201D180
:1000E00000F030F87E460F3EB6460FCC0126334274
:1000F00000D0FB1A3343A246AB4618479C060000CB
:10010000BC060000103A02D378C878C1FAD852076A
:1001100001D330C830C101D504680C6070470000BD
:100120000023002400250026103A01D378C1FBD813
:10013000520700D330C100D50B6070471FB51FBDFB
:1001400010B510BD00F02DF81146FFF7F7FF00F0D5
:1001500077FA00F045F803B4FFF7F2FF03BC00F0B4
:100160004BF800000748804707480047FEE7FEE7D6
:10017000FEE7FEE7FEE7FEE704480549054A064BB1
:100180007047000099020008C1000008A801002083
:10019000A8070020A8030020A8030020704770478C
:1001A0007047754600F024F8AE4605006946534690
:1001B000C008C000854618B020B5FFF7DDFF60BC61
:1001C000B64600260027C0C5C0C5C0C5C0C5C0C54D
:1001D000C0C5C0C5C0C5403D490849008D467047EF
:1001E00010B50446C046C0462046FFF7B4FF10BD18
:1001F000004870472000002001491820ABBEFEE7F0
:100200002600020070470000B0B5012081031F4A9C
:1002100053680B435360410413680B43136005217B
:10022000CA041B490B460C3B1C6814431C6011227A
:1002300012018B6913438B6142020B46083B1C6819
:1002400094431C60032293040C689C430C600C1FB5
:1002500025681D43256012050B6893430B6002055A
:100260000B6813430B600B490A6882430A604522FE
:10027000CA600C220A600A68602313430B600022E4
:100280004A608A600A6802430A60B0BD14100240E6
:100290000C0000480038014070470000F0B581B004
:1002A000414C2068800600D448E12089C0B20D3856
:1002B000722800D942E14000784480884000874499
:1002C00075003D013D013D013D013D013D013D0107
:1002D0003D013D013D013D013D013D013D013D012E
:1002E0003D013D013D013D013D013D013D013D011E
:1002F0003D013D013D013D013D013D013D013D010E
:100300003D013D013D018B009D00AF00C100D200C9
:10031000E300F4000501160127013D013D013D0107
:100320003D013D013D013D013D013D013D013D01DD
:100330003D013D013D013D013D013D013D013D01CD
:100340003D013D013D013D013D013D013D013D01BD
:100350003D013D013D013D013D013D013D013D01AD
:100360003D013D013D013D013D013D013D013D019D
:100370003D013D013D013D013D013D013D013D018D
:100380003D013D013D013D013D013D013D013D017D
:100390003D013D013D013D013D013D013D013D016D
:1003A0003D013D015001C0461C3801408F48017895
:1003B000002900D1E6E00021017000F0BDF9894874
:1003C0000168CAB2884B0D259D544A1CD2B20A2539
:1003D0009D54891C0160AFE08048017849B204292E
:1003E00000DDABE07F4A1368DDB27F4E30277755E2
:1003F000491C4DB2AD007A4E002799E0774801784C
:1004000049B2042900DD99E0764A1368DDB2764EE0
:1004100031277755491C4DB2AD00714E012787E059
:100420006E48017849B2042900DD87E06D4A1368FF
:10043000DDB26D4E32277755491C4DB2AD00684E86
:10044000022775E06548017849B2042976DC654ADF
:100450001368DDB2644E33277755491C4DB2AD00A9
:100460005F4E032764E05D48017849B2042965DCEA
:100470005C4A1368DDB25C4E34277755491C4DB297
:10048000AD00574E042753E05448017849B204297F
:1004900054DC544A1368DDB2534E35277755491C56
:1004A0004DB2AD004E4E052742E04C48017849B2AE
:1004B000042943DC4B4A1368DDB24B4E362777558F
:1004C000491C4DB2AD00464E062731E04348017845
:1004D00049B2042932DC434A1368DDB2424E372761
:1004E0007755491C4DB2AD003D4E072720E03B48F3
:1004F000017849B2042921DC3A4A1368DDB23A4E48
:1005000038277755491C4DB2AD00354E08270FE00E
:100510003248017849B2042910DC324A1368DDB24E
:10052000314E39277755491C4DB2AD002C4E092765
:1005300077510170581C106000F0D6F82068400612
:100540000DD54020606070490868264A12689042C4
:1005500005D2421C0A60C0B22349085CA08101B0E8
:10056000F0BD1E48017849B20029E7D48A001C4B2F
:1005700000259D5022681206FCD57F22A281491ECB
:100580000170DBE717490B68002519A6164A775D4D
:100590005919C9B257546D1C172DF8D15B1911495F
:1005A0000B600025184E5919C9B2377830375754A7
:1005B000361D6D1C062DF6D15B190A490B6000250E
:1005C00012A6715DDFB2D1556D1C5B1C162DF8D1E2
:1005D0000121017003480360AEE7C046000000201F
:1005E000900100208C010020800000208401002068
:1005F000CFE5F0E8EEE420ECE8E3E0EDE8FF2C20C6
:10060000ECEAF13A20000000040000200D0ACDEED3
:10061000E2EEE520E7EDE00FE5EDE8E520ECEAF1BC
:100620003A20000081B0002100910099814205D25A
:100630000099491C009100998142F9D301B070479B
:1006400084B072B60124A00422490A6802430A60F9
:100650002104214A106801910843204310600F20B3
:100660000006116881431160200251690143516104
:1006700025480025056019480560FFF7C5FD02946F
:10068000E00617490A6802430A6062B60526039528
:100690002C460096134F03983860B0003C490D5823
:1006A0000A20214600F034F868433860641C761E46
:1006B000062CF0D10298084CA0610A4D2868FFF77B
:1006C000B1FF0198A0612868FFF7ACFF039C009E72
:1006D000E1E7C04614100240000400488C010020ED
:1006E00000E100E080010020064801680906FCD511
:1006F00005490A68531C0B60D1B2044A515C8181E0
:100700007047C0461C38014088010020800000204E
:1007100010B5002902D0012902D110BD012010BD61
:10072000CA0701D0044600E0012440434908FFF70E
:10073000EFFF604310BD000070B51448017849B266
:10074000002921D4124A0021116051609160D160CA
:10075000116151611432047805250E4B66B2B60062
:100760009E591660E4B2FF34E6B2A64204D0121FCE
:100770006E1E002D3546F1DC196059609960D96014
:1007800019615961FF21017070BDC0460000002051
:100790000400002090010020B8070008000000209D
:1007A0001C00000004010008D407000820000020FD
:1007B0008807000020010008FF0000000100000081
:1007C000020000000300000004000000050000001B
:0407D000060000001F
:040000050800016589
:00000001FF
