:020000040800F2
:10000000A8070020650100086D0100086F010008C5
:1000100000000000000000000000000000000000E0
:100020000000000000000000000000007101000856
:1000300000000000000000007301000875010008C6
:1000400077010008770100087701000877010008B0
:1000500077010008770100087701000877010008A0
:100060007701000877010008770100087701000890
:100070007701000877010008770100087701000880
:100080007701000877010008770100087701000870
:100090007701000877010008770100087701000860
:1000A0007701000877010008770100089D02000829
:1000B0007701000877010008770100087701000840
:1000C00000F002F800F03EF80CA030C80838241800
:1000D0002D18671EA246AB4654465D46AC4201D180
:1000E00000F030F87E460F3EB6460FCC0126334274
:1000F00000D0FB1A3343A246AB46184798060000CF
:10010000B8060000103A02D378C878C1FAD852076E
:1001100001D330C830C101D504680C6070470000BD
:100120000023002400250026103A01D378C1FBD813
:10013000520700D330C100D50B6070471FB51FBDFB
:1001400010B510BD00F02DF81146FFF7F7FF00F0D5
:1001500075FA00F045F803B4FFF7F2FF03BC00F0B6
:100160004BF800000748804707480047FEE7FEE7D6
:10017000FEE7FEE7FEE7FEE704480549054A064BB1
:100180007047000099020008C1000008A801002083
:10019000A8070020A8030020A8030020704770478C
:1001A0007047754600F024F8AE4605006946534690
:1001B000C008C000854618B020B5FFF7DDFF60BC61
:1001C000B64600260027C0C5C0C5C0C5C0C5C0C54D
:1001D000C0C5C0C5C0C5403D490849008D467047EF
:1001E00010B50446C046C0462046FFF7B4FF10BD18
:1001F000004870472000002001491820ABBEFEE7F0
:100200002600020070470000B0B5012081031F4A9C
:1002100053680B435360410413680B43136005217B
:10022000CA041B490B460C3B1C6814431C6011227A
:1002300012018B6913438B6142020B46083B1C6819
:1002400094431C60032293040C689C430C600C1FB5
:1002500025681D43256012050B6893430B6002055A
:100260000B6813430B600B490A6882430A604522FE
:10027000CA600C220A600A68602313430B600022E4
:100280004A608A600A6802430A60B0BD14100240E6
:100290000C0000480038014070470000F0B581B004
:1002A000414C2068800600D448E12089C0B20D3856
:1002B000722800D942E14000784480884000874499
:1002C00075003D013D013D013D013D013D013D0107
:1002D0003D013D013D013D013D013D013D013D012E
:1002E0003D013D013D013D013D013D013D013D011E
:1002F0003D013D013D013D013D013D013D013D010E
:100300003D013D013D018B009D00AF00C100D200C9
:10031000E300F4000501160127013D013D013D0107
:100320003D013D013D013D013D013D013D013D01DD
:100330003D013D013D013D013D013D013D013D01CD
:100340003D013D013D013D013D013D013D013D01BD
:100350003D013D013D013D013D013D013D013D01AD
:100360003D013D013D013D013D013D013D013D019D
:100370003D013D013D013D013D013D013D013D018D
:100380003D013D013D013D013D013D013D013D017D
:100390003D013D013D013D013D013D013D013D016D
:1003A0003D013D015001C0461C3801408E48017896
:1003B000002900D1E4E00021017000F0BBF9884879
:1003C0000168CAB2874B0D259D544A1CD2B20A253A
:1003D0009D54891C0160AFE07F48017849B204292F
:1003E00000DDABE07E4A1368DDB27E4E30277755E4
:1003F000491C4DB2AD00794E002799E0764801784E
:1004000049B2042900DD99E0754A1368DDB2754EE2
:1004100031277755491C4DB2AD00704E012787E05A
:100420006D48017849B2042900DD87E06C4A136801
:10043000DDB26C4E32277755491C4DB2AD00674E88
:10044000022775E06448017849B2042976DC644AE1
:100450001368DDB2634E33277755491C4DB2AD00AA
:100460005E4E032764E05C48017849B2042965DCEC
:100470005B4A1368DDB25B4E34277755491C4DB299
:10048000AD00564E042753E05348017849B2042981
:1004900054DC534A1368DDB2524E35277755491C58
:1004A0004DB2AD004D4E052742E04B48017849B2B0
:1004B000042943DC4A4A1368DDB24A4E3627775591
:1004C000491C4DB2AD00454E062731E04248017847
:1004D00049B2042932DC424A1368DDB2414E372763
:1004E0007755491C4DB2AD003C4E072720E03A48F5
:1004F000017849B2042921DC394A1368DDB2394E4A
:1005000038277755491C4DB2AD00344E08270FE00F
:100510003148017849B2042910DC314A1368DDB250
:10052000304E39277755491C4DB2AD002B4E092767
:1005300077510170581C106000F0D4F82068400614
:100540000DD5402060606F490868254A12689042C6
:1005500005D2421C0A60C0B22249085CA08101B0E9
:10056000F0BD1D48017849B20029E7D48A001B4B31
:1005700009259D5022681206FCD5491E0170DDE751
:1005800017490B68002519A6164A775D5919C9B293
:1005900057546D1C172DF8D15B1911490B600025BC
:1005A000184E5919C9B2377830375754361D6D1C5B
:1005B000062DF6D15B190A490B60002512A6715D64
:1005C000DFB2D1556D1C5B1C162DF8D101210170D5
:1005D00003480360B0E7C0460000002090010020FF
:1005E0008C0100208000002084010020CFE5F0E88D
:1005F000EEE420ECE8E3E0EDE8FF2C20ECEAF13A51
:1006000020000000040000200D0ACDEEE2EEE520FF
:10061000E7EDE0F7E5EDE8E52C20ECEAF13A200023
:1006200081B0002100910099814205D20099491CB6
:10063000009100998142F9D301B0704784B072B63D
:100640000124A00422490A6802430A602104214AC5
:10065000106801910843204310600F2000061168C4
:1006600081431160200251690143516125480025F1
:10067000056019480560FFF7C7FD0294E0061749B9
:100680000A6802430A6062B6052603952C46009666
:10069000134F03983860B0003C490D580A2021469A
:1006A00000F034F868433860641C761E062CF0D1E4
:1006B0000298084CA0610A4D2868FFF7B1FF019825
:1006C000A0612868FFF7ACFF039C009EE1E7C046ED
:1006D00014100240000400488C01002000E100E0FA
:1006E00080010020064801680906FCD505490A6812
:1006F000531C0B60D1B2044A515C81817047C046E3
:100700001C380140880100208000002010B500291D
:1007100002D0012902D110BD012010BDCA0701D0AD
:10072000044600E0012440434908FFF7EFFF60431F
:1007300010BD000070B51448017849B2002921D4D9
:10074000124A0021116051609160D16011615161C4
:100750001432047805250E4B66B2B6009E59166019
:10076000E4B2FF34E6B2A64204D0121F6E1E002D82
:100770003546F1DC196059609960D9601961596199
:10078000FF21017070BDC046000000200400002061
:1007900090010020B4070008000000201C000000A9
:1007A00004010008D007000820000020880700008E
:1007B00020010008FF00000001000000020000000E
:1007C0000300000004000000050000000600000017
:040000050800016589
:00000001FF
